:0400000080313028F3
:100008007E1480310B1F2E282100921C12282000FC
:10001800921C122883319F2380312E282100141C22
:100028001C282000141C1C288331932380312E287F
:100038002100111D26282000111D26288331AB23FD
:1000480080312E282100911F2E282000911F2E2854
:100058008331BD237E1009008031322821006830A9
:10006800C1000130C2006830C3000130C400C500BF
:10007800A03084000030850021308331B7237E1002
:1000880020008931FA293408350403195428300826
:10009800B4023108B53B3508C2003408C1005628FF
:1000A80030009D1321005730BC01BC0A2000C0213C
:1000B8008A315E2280317D2801303502683003198B
:1000C8003402031874283008B4073108B53D683085
:1000D800C1000130C2003408C1023508C23B76288D
:1000E80030009D13CC218031C0218A315E228031BD
:1000F8007D28210035082000EA002100340820006E
:10010800E9008330A0003F30A1002930A2006A082E
:10011800A4006908A3000B290130370268300319CD
:1001280036020318A4283208B6073308B73D6830EA
:10013800C3000130C4003608C3023708C43BA628F0
:100148002D009D17CC21A0009030A1002100370878
:100158002000A300210036082000A2008A315E2278
:100168008031B628210037082000EA00210036082F
:100178002000E9008030A0003F30A1002930A20013
:100188006A08A4006908A3000B298330F0003F30F7
:10019800F100412180317108FD007008FC003F30FA
:1001A8007D02FF3003197C02031808007D08210036
:1001B800B5007C08B40000302000A0009030A100F9
:1001C8007D08A3007C08A2008A315E2A8030F000F6
:1001D8003F30F100412180317108FD007008FC00BA
:1001E8003F307D02FF3003197C02031808007D08A8
:1001F8002100B7007C08B6001E302000A000903017
:10020800A1007D08A3007C08A2008A315E2AFF3085
:10021800A6003F30A7001F30A6062008A605210823
:10022800A7052008A5001F30A505A8012808F0008B
:10023800F1012608F0072708F13D4121803120000F
:1002480028352207FD00860087017008C03F710825
:10025800C13F2030A80A2802031C1A292535220785
:10026800FD0086002308C03F2408C13F2708F4008A
:100278002608F3002208F5005B2900308B1B0130AB
:10028800F2008B1370082300910071089200151377
:10029800151400000000720C031C8B1303188B1735
:1002A80023001408F100F0011308F0040800FF30DF
:1002B800FA003F30FB001F30FA067308FA0574088D
:1002C800FB0500308B1B0130F9007B087406031D09
:1002D8006F297A087306031D08008B137408F10050
:1002E8007308F000A8218031151315159516FC0127
:1002F800730823009100740892007C357507F60096
:1003080086008701010893007C357507F600860092
:10031800403FF700413FF80094001F307C06031966
:10032800951255309600AA309600951400000000EA
:10033800F30A0319F40A2030FC0A7C02031C7C2906
:1003480023001511790CD12900308B1B0130F200E4
:100358008B1370082300910071089200151315166D
:10036800151555309600AA30960095140000000027
:1003780023001511720CD129A0009030A100210092
:1003880035082000A300210034082000A20008003E
:1003980021005730BC0120000800031C8B130318F0
:1003A8008B170800542281314C228131FA22813185
:1003B800B722813145228131392281312C22813184
:1003C8002722813106228131E3228131D5228131F0
:1003D8001022813118228131FD2181313D22813164
:1003E800AC22813131228131BD2281310823813112
:1003F800FD2A013029009000C030910092018E0141
:100408008F0108008230250093009201910120009D
:100418001111210011150800843022009200930167
:1004280094010130950008002100921084302200C8
:100438009A009B0102309C0001309D002000921020
:100448002100921408002D0019238230930008001F
:100458003000192392309300080088302B008E005A
:100468009001FA308F000D1408008C3021009E0096
:10047800080080302A009100920101308F0090011D
:10048800080080302A009D009E019B019C01080005
:10049800683021009B0080309C009A019D01080073
:1004A800220090018F018C018D018E010530210001
:1004B800900039308C007B308D0016308E000D3066
:1004C8008F00053023008F008E011A308D00053013
:1004D80090001B308C0024008F0190018D018C014D
:1004E8008E0121009717250090018C018D018E0146
:1004F8008F01FF3026008C008D008E008F000730A2
:1005080090000D303D00A00011303C0090008F009D
:100518001430BB0021303D00A3000E30B10028305C
:100528009F0013303C00BA0008303D00AE00103088
:10053800AF000F3097000730AD000630AC00263012
:1005480096002330A5002430A6000530A700080037
:1005580080302C0096004D309500C0309400FC305F
:1005680025009F0508002400940120309500920181
:100578000800E03020009B007F309900FF30980091
:1005880019082100C700C601200018082100C60468
:1005980020001110911321009117803020009A003B
:1005A8000800013029009700960198014D30940009
:1005B800930120009110F0302900950008000530C3
:1005C8002800970004309600113098004D309400B0
:1005D80093012000141021001414BF30F0000330E0
:1005E800F1001323E0302800950008001630990028
:1005F8000800083023009F0080309D0024309E00B2
:1006080067309B009C01080080302C009C004D3016
:100618009B00C0309A00CF3025009F050800710864
:100628002100C9007008C8000800930194018030B7
:10063800950096019700980199009A019B009C01EA
:1006480014309D009E019F01910192018F0190013C
:100658008D018E01080022000D154E238331512390
:100668008331552383315F2B512383314E238331CB
:100678005423833155232100C001C00A08002200F9
:100688008F154E23833151238331542383315523CE
:1006980083315F2BF8302D005B2BF83030005B2B5B
:1006A800582B20001A1008002800951308009305FD
:1006B800A0309F0008002100BF01BF0A08008E304B
:1006C800AF01AE00AD1F752BAA09AB09AC09AD0986
:1006D800AA0A0319AB0A0319AC0A0319AD0AAF0138
:1006E800AF0AFF302D0503197F2BAD36AC0CAB0CD0
:1006F800AA0CAE0A752B2A08F0002B08F1002C086A
:10070800F2002E08F3002F08F40089310821700840
:100718002000AA007108AB007208AC000800141091
:100728002100480849040319080049088A004808B4
:100738000A008331080092102100220823040319BB
:10074800080023088A0022080A00833108001111D2
:100758002100240825040319080025088A00240814
:100768000A0083310800640080010131890BB82B2D
:08077800003491130800080091
:101022002D0049278831C50A370268300319360274
:10103200031C1E282D009D1708007E218831AA213D
:101042008831862F300049278831350268300319EC
:101052003402031C2F2830009D130800BF21883161
:101062007E218831AA21883130008B2F22000D1178
:101072008F1121004508031949283C080319442807
:1010820071208831462854208831462188316E29C2
:101092003C0803194F288E2088315128512188316C
:1010A20046218831AD293708F9003608F8007D2439
:1010B200883104278831E224883121278831AB2006
:1010C20088314408D3004508D4004608D5005308A7
:1010D200A0005408A1005508A2008D248831192FC0
:1010E2004408F9004308F8007D2488310427883138
:1010F200E224883121278831AB2088314408D3008B
:101102004508D4004608D5005308A0005408A100A1
:101112005508A2008D248831192F4208F900410890
:10112200F8007D24883104278831E2248831212780
:101132008831AB2088314408D3004508D4004608E2
:10114200D5005308A0005408A1005508A2008D2420
:101152008831192F4408CA004508CB004608CC0044
:1011620003104B0D4C0DCD004D08031DB9289D2FCA
:101172004708CA004808CB004908CC0003104B0DB1
:101182004C0DD2005208031DC7289D2F52087B3EEA
:10119200CD074608D2004908D2068030D205FF307A
:1011A200C517C817C705C8050730C901CE01CF0149
:1011B200D001D100441CDF2879278831C636C50CFE
:1011C200C40CC735C80DC90DD10BDB280930D100BD
:1011D200441CED2879278831C636C50CC40CD0369C
:1011E200CF0CCE0CD10BE9284E08F0004F08F100CD
:1011F2005008F2004D08F3005208F400082170086C
:101202002000C4007108C5007208C60008007308F7
:1012120003191029720871047004031D1829F001C2
:10122200F101F2010800F30AF236F10CF00CFE3083
:101232007205031926291429F30AF00A0319F10A7F
:101242000319F20AF236F10CF00CFF3072050319A1
:1012520033291D2902307302031C3529F303F035AB
:10126200F10DF20DF11F2B29731CF113F3367308E4
:10127200F700F601F5017508F0047608F104770825
:10128200F2047408031DF21708002C08F83EA000AF
:10129200FF302D3DA1008030A136A00CA10708002F
:1012A2003508F9003408F8007D2488310427883194
:1012B200E224883121278831AB2088314408D300C9
:1012C2004508D4004608D5005308A0005408A100E0
:1012D2005508A2008D248831192F2D0053278831FB
:1012E200C50A36083704031D79292D009D17080009
:1012F2007E218831AA218831862F2108F100200819
:10130200F00088218831912188312230A629710884
:10131200F3007008F20025009100730892000800A3
:1013220021004708F1004608F000972920001A1D05
:10133200A1291A1071089900700898001A1408005F
:1013420071089900700898000800F00028009400C5
:10135200080020001A14080030005327883134088E
:101362003504031DB72930009D130800BF218831C1
:101372007E218831AA21883130008B2F2F0842022A
:10138200031DC5292E0841020318CB294108420436
:10139200031DEF292F08F9002E08F8007D2488315B
:1013A20004278831E224883121278831AB20883113
:1013B2004408D6004508D7004608D8005608A000C1
:1013C2005708A1005808A2008D2488312108210065
:1013D200AD00200020082100AC00F9292F084202AC
:1013E200031DF5292E0841020318F9298E208831A0
:1013F20046298131D62188318B170B175D2388311D
:10140200F7268831342588313830F0000330F10076
:1014120019258831CD228031EA2088318031C920D6
:1014220088311E258831CB258831DF268831A627D1
:1014320088312100400803192E2A4D22883177086D
:10144200AB007608AA00450803192B2AC001012423
:1014520088312E2AC0014E24883121003F08031909
:101462000B2ABF014D228831450803193B2A01246A
:1014720088313D2A4E2488311A302000EF005E3038
:10148200EE006E30890B432AEE0B432AEF0B432A00
:101492000000372088310B2AED2771082100A900AE
:1014A2007008A8000830A835A90DA8070318A90AD2
:1014B2002908F7002808F60008002230A8002000BA
:1014C200302788312D0803190800253A03196D2A9F
:1014D2002D08CA228831602AA90130278831003AB2
:1014E2000319C92A643A03197A2A0D3A03197A2A86
:1014F200602A280886008701403FAB00413FAC00CC
:10150200A80AA80AAC1F8C2A0330A904AB09AC09AB
:10151200AB0A0319AC0AAD01AD0A2D083D2788318B
:10152200A600013FA7002C02031D992A26082B02C0
:10153200031CA02A0530AD0A2D06031D8E2A290898
:1015420003390319A72A2D30CA22883120002D0819
:10155200AA00C42A0A30F700F8012A083D27883178
:10156200F000013FF1002C08F3002B08F200C72322
:101572008831982788313D2388317708303E200012
:10158200AD00CA2288312000AA032A0FAB2A602AA2
:101592000800F1007108FD2E0530BE278831700861
:1015A200013EF4000030713DF5002D30F600F701E8
:1015B200D827883175082100AE000530AF01F70049
:1015C200F801A12788313D2388317708780403196F
:1015D200F02A84302000A0009030A100FD2A6F3054
:1015E2002000A0009030A10021002F082000A300BD
:1015F20021002E082000A2005E2288310130F40171
:10160200EC238831A3302E2388310530F4000130D9
:10161200EC23883164305C278831C7238831700815
:10162200303E2E2388310A30F700F8015C278831DA
:10163200C7238831982788313D2388317708303E87
:101642002E2388310A30F700F8012100A1278831C2
:101652003D2388317708303E2E2BF300E030F10035
:101662001230B02388317308F1001330B02388316F
:10167200A030F1001230B02B770878040319582BF0
:10168200FB01FB0AF81B482BF735F80D422B7808B3
:101692007A02031D4E2B77087902031C542B77081C
:1016A200F9027808FA3BF836F70CFB0B482B7A085C
:1016B200F8007908F70008000030F101B023883102
:1016C2000130F101B02388312030F1001230B02313
:1016D20088310D30F400FC30890B6D2BF40B6D2B2F
:1016E2003C30A12388310D30F400FC30890B772B7C
:1016F200F40B772B0C30A12388310D30F400FC3031
:10170200890B812BF40B812B0130A12388310D3001
:10171200F400FC30890B8B2BF40B8B2B0C30A123A8
:101722008831A930F400D430890B952BF40B952B1A
:101732008030A1238831C8300032890B9D2B0800EC
:10174200F3006030F1001230B02388317308F100E9
:101752001330B02388312030F1001230B02BF20068
:1017620022000C114030BE2388317208BE2388311A
:101772007108BE2322000C150800F0002400951306
:1017820070089100141CC32B11080800F401F50124
:10179200700871040319E72BF601F60AF11BD42B2A
:1017A200F035F10DCE2BF435F50D71087302031DE2
:1017B200DC2B70087202031CE32B7008F202710822
:1017C200F33B7414F136F00CF60BD42B7508F100D0
:1017D2007408F0000800F8000230780203180800CC
:1017E20078080319FA2B7408F600C030F701F604E2
:1017F200FE2B7408F600F701F6177608F500A12B08
:10180200932788317D24883128278831122788310F
:10181200E224883172278831392588314408EB0067
:101822004508EC004608ED006B08A0006C08A1001A
:101832006D08A2008D24883121082100B300200008
:1018420020082100B2003C302000A0009030A1000E
:1018520021002B082000A30021002A082000A2005A
:101862005E2288318530A0009030A100210033082B
:101872002000A300210032082000A2005E2288314D
:1018820021003E080319482CBE01803190283D08F2
:1018920003190800BD0180314728932788317D2430
:1018A20088312827883112278831E224883172272B
:1018B2008831392588314408EB004508EC00460898
:1018C200ED006B08A0006C08A1006D08A2008D2439
:1018D200883121082100B100200020082100B00039
:1018E2003E080319772CBE01803160283D08031998
:1018F2000800BD01803147287808F0007908F1001E
:101902008E30F201F300F40108217008F80071082A
:10191200F9007208FA0008006427883103107C0D70
:101922007D0DA9002908031D9B2CA001A101A20184
:10193200A3010800642788311730FD36FC0CFB0C2C
:10194200890B9E2C7B08A400A117A2012008A500E8
:101952002108A6002208A7008E30A801A902A91F0B
:10196200BE2C2908803A8F3E031C962CA836A70C61
:10197200A60CA50CA90FB72CCB2C183029020318E2
:10198200962C29080319CB2CA535A60DA70DA80D59
:10199200A903C22C24080319D92CA509A609A70951
:1019A200A809A50A0319A60A0319A70A0319A80A6E
:1019B2002808A3002708A2002608A1002508A000E5
:1019C20008006B278831962588313008B800310825
:1019D200B9003208BA003E08BB003F08BC0040080C
:1019E200BD008F2688313808C1003908C2003A0884
:1019F200C3004108F8004208F9004308FA003E0813
:101A0200FB003F08FC004008FD00E1258831780812
:101A12002000BE007908BF007A08C0006B27883119
:101A220096253008BE003108BF003208C000080009
:101A32007108A5007008A400080020008C1A2C2D43
:101A42008230F400DE30890B242DF40B242D21008A
:101A5200BB01BB0A08008C1E080021003B080319C9
:101A62000800BB0111282F30F0000330F100FB2FDA
:101A72004708CA004808CB004908CC0003104B0DA8
:101A82004C0DD1005108031D472D8F2F4408CA0069
:101A92004508CB004608CC0003104B0D4C0DD2007C
:101AA2005208031D552D8F2F8930CE01CF01D00151
:101AB2005207CA00D1024908D2004608D206803035
:101AC200D2051830C817C901C517C601CD00CE35D9
:101AD200CF0DD00D46084902031D752D4508480259
:101AE200031D752D44084702031C7E2D4408C702BE
:101AF2004508C83B4608C93B4E14C735C80DC90D39
:101B0200CD0B682D4E08F0004F08F1005008F2008E
:101B12005108F3005208F400082170082000C400A4
:101B22007108C5007208C60008003008F0003108CC
:101B3200F1003208F2003630F300AB268831B71FCD
:101B4200A62DB001B101B2010800003037021530F4
:101B520003193602031808003008A0003108A1005A
:101B62003208A2008D242308AD002208AC0021080F
:101B7200AB002008AA00833163232A08B3002B0894
:101B8200B4002C08B5003308B0003408B1003508A1
:101B9200B200080020000D18D92D8230F400DE308A
:101BA200890BD12DF40BD12D2100B901B90A0800FE
:101BB2000D1C08002100390803190800B9016E291B
:101BC2007808A0007908A1007A08A2000310210D6C
:101BD200220DA5007B08A0007C08A1007D08A200C0
:101BE2000310210D220DA40025080319042E240838
:101BF2002502240803180C2EA0002508A002193083
:101C02002002031C0B2E7B08F8007C08F9007D08DB
:101C1200FA00080024080319080025082402031802
:101C22001A2E2508A0002408A00219302002031849
:101C320008000630A300FA1BA317FD1B2317F91790
:101C4200FA01FC17FD012408250203183F2EFB357B
:101C5200FC0DFD0DA4032408250603193A2EA30347
:101C62002308073903193A2E282EFA36F90CF80CF4
:101C7200A50A250824060319592E362E2508240202
:101C82000318592EF835F90DFA0DA5032408250677
:101C92000319552EA303230807390319552E432E82
:101CA200FD36FC0CFB0CA40A25082406031D512E4C
:101CB200A31F642EFF30F806F906FA06F80A031984
:101CC200F90A0319FA0A231F6C2E80278831031997
:101CD200FC0A0319FD0AA3017808FB077908FC3DF9
:101CE2007A08FD3DFD1F7D2E802788310319FC0AED
:101CF2000319FD0AA301A30A7B08F0007C08F10086
:101D02007D08F2002508F3002308F400082170087A
:101D1200F8007108F9007208FA0008003A0839045C
:101D220038040319962E8030BA063B08F8003C08A6
:101D3200F9003D08FA003808FB003908FC003A08AF
:101D4200FD00E12578082000B8007908B9007A087A
:101D5200BA000800720871047004031DB72E7308DC
:101D6200860000308701C03FC13F080072087F39FA
:101D7200F400F501F435F50D730886008701740847
:101D8200C03F7508C13F710D710D0139F400F501B5
:101D92007308860074088104413175088104730850
:101DA2008600823087018107FF304131813D7F31DA
:101DB200720880393F38F200F113080020000E1932
:101DC200EF2E82302000D900DD30890BE62ED90BB0
:101DD200E62E00322100BA01BA0A08000E1D0800E0
:101DE20021003A0803190800BA0123284330F00001
:101DF2000330F1008331132BF000111EFE2E700808
:101E020023009A00080078082000C7007908C8005B
:101E12007A08C9005530BE008530BF004030C0008E
:101E220008005530BE008530BF004030C0000800B9
:101E320021082100AD00200020082100AC0008008C
:101E42003E08C4003F08C5004008C60008007808E4
:101E52002000C7007908C8007A08C90008002108D4
:101E6200A5002008A400A00A0319A10A84002508DD
:101E720085000008AD000800A4009930A501A43532
:101E8200A50D240784009030253D8500003F080001
:101E92001308F8390238930021000130BE01BE0A4E
:101EA200C50108001308F839033893002100BD0169
:101EB200BD0AC5010800F000F10121002F08F3005E
:101EC2002E08F20008002008FB002108FC0022086E
:101ED200FD0008003E08B0003F08B1004008B20013
:101EE20008003E08C4003F08C5004008C6000800BC
:101EF2004708CE074808CF3D4908D03D0800FF30CB
:101F0200FB06FC06FD06FB0A08002D009D132800B7
:101F1200951708009D13280095170800C401C501F4
:101F2200C60108002B08F9002A08F8000800710809
:101F3200FA007008F9000800C401C501C6010800D2
:101F42002F08FA002E08F900080020008D1AB62F7B
:101F520082302000D900DD30890BAD2FD90BAD2F97
:101F620000322100B801B80A08008D1E08002100C5
:101F7200380803190800B801AD29F300F200F20D88
:101F8200F20D29001008720603397206900010142F
:101F9200003200320000290090149018CE2F0F0852
:101FA200F100F0010E08F0070318F10A0800F80129
:101FB200F901741CE02F7608F8077708F93DF63529
:101FC200F70DF536F40C74087504031DDA2F790841
:101FD200F5007808F400080020001808F500190838
:101FE200F400F300F2017508F2047308F1007208BC
:101FF200F00008007108A3007008A2000800613414
:1020020063347434753461346C344D346F347434E5
:102012006F3472343034323450346F347334693440
:10202200743469346F346E3420343D3420342534B2
:10203200643420340A340D3400346134633474342B
:10204200753461346C344D346F3474346F3472349B
:102052003034313450346F34733469347434693405
:102062006F346E3420343D342034253464342034CB
:102072000A340D3400346134633474347534613499
:102082006C3452346934703470346C346534433493
:102092006F3475346E34743420343D342034253436
:1020A200643420340A340D342034003474346F34F0
:1020B200743461346C3461346E3467346C34653436
:1020C2005434753472346E346534643420343D349F
:1020D2002534643420340A340D34003461346E34CF
:1020E20067346C346534443465347334693472341F
:1020F2006534643420343D3420342534643420344F
:1021020009340D340A34003441346E3467346C348B
:1021120065345434753472346E3465346434203426
:102122003D3420342534643420340A340D340034F0
:10213200013400340A34003464340034E8340334A3
:10214200103427344134443420343D3420340034B4
:020000040001F9
:04000E00E4FFFFFE0E
:00000001FF
