:0400000023EF00F0FA
:100008005C82FACF01F0FBCF02F0F2AC12D00E0105
:10001800C2B1CAA103D0F4EC0FF00BD0C3B1CBA18D
:1000280003D00CEC0FF005D0C1B7C9A702D0FDEC86
:100038000EF002C0FBFF01C0FAFF5C921100FEEF58
:020048000DF0B9
:100F00000001000A006400E8031027616374756142
:100F10006C526970706C65436F756E74203D20254E
:100F200064200A0D2000746F74616C616E676C65DB
:100F30005475726E6564203D2564200A0D0061635E
:100F40007475616C506F736974696F6E203D2025F4
:100F500064200A0D00416E676C655475726E65649D
:100F6000203D202564200A0D000010C014F0156AF1
:100F7000166A0F34143601E315801450196E13C02D
:100F800014F0156A166A1234143601E315801450F1
:100F9000186E195009E01850195C0DE21950185CD0
:100FA000146E180E146407D011C00EF012C00FF0AA
:100FB00013C010F01200185009E01950185C0DE22F
:100FC0001850195C146E180E146407D00EC00EF081
:100FD0000FC00FF010C010F01200060E176E10BEFA
:100FE000178E13BE178C0F8E106A128E136A18504C
:100FF000195C14E2D89011361236133618061950BF
:10100000181808E053D806E0F5D7D89010320F3200
:101010000E32192A1850191817E0F7D71950185C12
:1010200013E2D8900E360F361036190619501818DC
:1010300008E03CD806E0F5D7D890133212321132CE
:10104000182A18501918F8E117AE07D00E1E0F1EF7
:10105000101E0E2A000E0F22102217BC1FD8176A6E
:101060000E5011260F5012221050132213AE03D02F
:1010700015D8010E176E11C003F012C004F013C092
:1010800005F019C006F017C007F044EC0AF003C0E1
:101090000EF004C00FF005C010F01200111E121E59
:1010A000131E112A000E12221322000C170617C05D
:1010B00014F0070E1416070C100E136E5FD0250ED9
:1010C000181804E01850E6EC0FF058D0146A0F2AF4
:1010D0000F045AD864D8D8B41200640A02E00D0A8A
:1010E0004DE11350D96EDA6ADECF16F0DDCF17F07E
:1010F000020E132617AE06D0030E1412166C171E1E
:10110000D8B0172A010E186E185045D83DD80900DE
:10111000F550165C0900F550175804E3182A050E1F
:101120001818F2E114C012F0030E121603E02D0E8F
:10113000E6EC0FF018C015F01ED015502CD824D8AE
:101140000900F5CF05F00A00F5CF06F016C003F050
:1011500017C004F0CFEC0CF003C00AF004C00BF091
:101160000D6A0A0E0C6E57EC0DF00A50300F186E17
:101170001850E6EC0FF015061528DFE10F2A0F04D2
:1011800003D80DD89CE11200126E12C0F6FF0F0EAC
:10119000F76EF86A1200020DF350010F12000800FA
:1011A000F5CF18F01850120049C04DF04E6A4F6A42
:1011B00048344D3601E34E804D50506E505001E1A1
:1011C00053D04CC04DF04E6A4F6A4B344D3601E35C
:1011D0004E804D50556E555001E146D055507B0F15
:1011E000502649C055F04C50551A800E5516488E61
:1011F0004B8E000E4C16516A526A536A070E546E9B
:1012000047B02BD8D890493248324732D8904A3626
:101210004B364C36542EF4D7090E546E47B01DD8B9
:10122000D890493248324732D890533252325132F4
:10123000542EF4D751C003F052C004F053C005F04F
:1012400050C006F055C007F044EC0AF003C047F068
:1012500004C048F005C049F012004A5051264B50D6
:1012600052224C5053221200476A486A496A1200BF
:101270001CC01EF01F6A206A1B341E3601E31F804B
:101280001E50286E285005E11A6A1B6A1C6A1D6AE6
:101290001200170E1E6E1AC01FF01BC020F01CC0DB
:1012A00021F01E28226E04D0D890213220321F3225
:1012B000222EFAD71F50236E1B8E1C6A1A50246EE2
:1012C0001B50256E1C50266E276A8E0E285E28AE97
:1012D0000CD02850800A8F0FD7E3D89027322632BF
:1012E00025322432283EF9D70CD0170E286407D0B7
:1012F000CBD7D890243625362636273628062850D0
:10130000F8E1235008E0271E261E251E246C000E3F
:1013100025222622272224C01AF025C01BF026C031
:101320001CF027C01DF0120049C04DF04E6A4F6AF4
:1013300048344D3601E34E804D50546E545001E117
:101340004AD04CC04DF04E6A4F6A4B344D3601E3E3
:101350004E804D50556E555001E13DD0516A526A54
:10136000536A5550890F545E49C055F04C50551A78
:10137000800E5516488E496A4B8E4C6A180E506E78
:10138000D8905136523653364A50475C4B504858E5
:101390004C50495807E34A50475E4B50485A4C500E
:1013A000495A5180D890473648364936502EE8D7AA
:1013B00051C003F052C004F053C005F054C006F011
:1013C00055C007F044EC0AF003C047F004C048F0F1
:1013D00005C049F01200476A486A496A1200715113
:1013E00008E0716BDEEC0EF0D8900334646F0434C7
:1013F0000AD0DEEC0EF0D890033604360A0E032431
:10140000646F000E0420656F38D8C8EC0AF041C044
:101410004AF042C04BF043C04CF064C00BF065C0D2
:101420000CF0CCEC0EF00BC047F00CC048F00DC037
:1014300049F094EC09F047C056F048C057F049C055
:1014400058F056C01AF057C01BF058C01CF038ECCA
:1014500009F01AC068F01BC069F00B0E0F6E64C073
:1014600010F065C011F05CEC08F0550E0F6E68C00E
:1014700010F069C011F05CEF08F0550E416E850E5A
:10148000426E400E436E400C065004E003500410C0
:10149000051006E1036A046A056A1200062A2DD8BF
:1014A000086A096AFE0E05142DD807E0F7D7062A48
:1014B000032A000E0422052220D8086A096A055072
:1014C00021D806E0F4D70606D89003360436053650
:1014D00004BE03D0020E0660F6D706A0049ED89084
:1014E000063206500512075001E0058E03C003F0D6
:1014F00004C004F005C005F01200D8900532043293
:10150000033212000A6E085009100A10120000017E
:10151000815168086A6F8251D8A0E82A01086B6F70
:101520003DEC0AF0C8EC0AF0E0EC0BF02CD8CCEC67
:101530000EF0D9EC0BF0D4EC08F047C056F048C0E0
:1015400057F049C058F015D856C00EF057C00FF0EC
:1015500058C010F0B5EC07F005D838EC09F0E7EC0E
:101560000BF00DD00EC01AF00FC01BF010C01CF015
:101570001200116A200E126E410E136E410C010E04
:101580000001716F010C6AC00BF06BC00CF012000F
:1015900041C03BF042C03CF043C03DF02ED83FEC90
:1015A0000BF033C03EF034C03FF035C040F0E3EC08
:1015B0000DF03BC044F03CC045F03DC046F041C09A
:1015C0000EF042C00FF043C010F044C011F045C00F
:1015D00012F046C013F0B5EC07F00EC041F00FC09A
:1015E00042F010C043F009D83FEC0BF033C041F09B
:1015F00034C042F035C043F0120041C033F042C065
:1016000034F043C035F0120018EC0EF01091F2ECFB
:101610000FF0829EF28EF28C2A0E036E1F0E046E65
:10162000E1EC0FF0CAEC0FF017EC0DF0ECEC0BF066
:101630004CEC0EF0ADEC0DF083EC0CF0A9EC0CF0E2
:101640000001745106E0746BEFEC09F051EC0FF0FF
:10165000EBD77051E9E0706BEFEC09F051EC0FF053
:10166000660E0001806F760E7F6FC10EE82EFED7EA
:101670007F2FFCD7802FFAD729EC0FF0D5D733C0B6
:1016800003F034C004F035C005F0390E066E55EC99
:101690000CF03AAE04D0336A346A356A12003A501C
:1016A00003E1150E395C07E333C033F034C034F086
:1016B00035C035F0120033C01AF034C01BF035C00D
:1016C0001CF038EC09F01AC029F01BC02AF01CC02D
:1016D0002BF01DC02CF022EC0CF029C036F02AC0F3
:1016E00037F02BC038F036C033F037C034F038C094
:1016F00035F01200866A856A826A836A846A070EF8
:101700008B6E0F0E876EFE0E886EBF0E896EF10E09
:101710008A6E710E0F01216F9F0E1C6FE80E146F01
:10172000070E296F0B0E0C6F206B286B136B0B6B66
:101730001B6B276B0A6B126B1A6B1F6B09691169A4
:1017400019691E69070E266F030E0E01FC6F020E4B
:101750001F6F1F0EAC6F010EEA6F040EFD6F020EBD
:10176000FB6F090EF86F090C3DEC0AF0C8EC0AF0AB
:1017700027D859C00BF05AC00CF0CCEC0EF019D899
:10178000D4EC08F047C056F048C057F049C058F0B4
:10179000B9EC0AF056C00EF057C00FF058C010F068
:1017A000B5EC07F0B2EC0AF038EC09F010D8BFEF56
:1017B0000AF00BC047F00CC048F00DC049F0120011
:1017C00041C04AF042C04BF043C04CF012001AC076
:1017D00062F01BC063F0120000016B6BB40E6A6F05
:1017E0002CD803E2815182111FE13DEC0AF0C8ECD4
:1017F0000AF0E0EC0BF0C3EC0AF0CCEC0EF0D9EC04
:101800000BF0D4EC08F047C07CF048C07DF049C034
:101810007EF07CC01AF07DC01BF07EC01CF038EC5E
:1018200009F0E7EC0BF004D008D802E237EC0DF039
:1018300066EC0EF0010E756F010C6A51815D6B5103
:1018400082591200326A8E0E316E2CAE11D02C1ECF
:101850002B1E2A1E296C000E2A222B222C22010E5E
:10186000326E06D0D8902C322B322A322932312ACD
:101870002D6A2E6A2F6A2C50306E2D502E102F108C
:101880003010F0E129C003F02AC004F02BC005F0AD
:1018900031C006F032C007F044EC0AF003C029F072
:1018A00004C02AF005C02BF01200035004100510EC
:1018B00006E10650D96EDA6ADE6ADD6A000C055070
:1018C0007F0B076E086AD890073608360650D96E27
:1018D000DA6A07C0DEFF08C0DDFF0650D96EDA6A9B
:1018E000010E04AE000EDE12000EDD120650D96E9F
:1018F000DA6A820EDE26FF0EDD220550800B3F09DC
:10190000056E049E12008DB210D0030E00017D6F93
:10191000080E7C6F770EE82EFED77C2FFCD77D2F2C
:10192000FAD7010E00016F6F010C8DA212000001A9
:101930006F51D8B412006F6B5B5003E05B6A37ECF9
:101940000DF05B5002E1B4EC0BF066EC0EF0A8EF8A
:101950000EF08DB410D0030E00017D6F080E7C6F69
:10196000770EE82EFED77C2FFCD77D2FFAD7010EFD
:1019700000016E6F010C8DA4120000016E51D8B4ED
:1019800012006E6B5B5002E137EC0DF05B5003E030
:101990005B6A87EC0AF066EC0EF0C8EF0DF0076AA0
:1019A000086A055006101BE0010E096E04D0D8909D
:1019B00005360636092A06AEFAD7D8900736083615
:1019C0000550035C0650045805E30550035E0650BD
:1019D000045A0780D89006320532092EEED707C088
:1019E00003F008C004F01200D7EC0DF010E26851CB
:1019F000592669515A2259506808816F5A50D8A007
:101A0000E82A0108826F811104E1828802D00F0167
:101A1000418F5B6A829A04D85CEC08F037EF0FF0D4
:101A2000260E0F6E59C010F05AC011F01200F20EBF
:101A30007FEC0FF01B6E1C6AF00E7FEC0FF01D6E3A
:101A40001B50196E1D501E6E19C01FF01E2803E199
:101A50001F28D8B412001EC059F01FC05AF03E0E05
:101A60000F6E1EC010F01FC011F05CEF08F03DECCF
:101A70000AF0C8EC0AF0E0EC0BF081C00BF082C079
:101A80000CF0CCEC0EF0D9EC0BF0D4EC08F047C025
:101A900056F048C057F049C058F056C01AF057C029
:101AA0001BF058C01CF038EC09F0E7EF0BF00C50BD
:101AB0000D1017E0010E0E6E04D0D8900C360D36C6
:101AC0000E2A0DAEFAD70C500A5C0D500B5804E3E9
:101AD0000C500A5E0D500B5AD8900D320C320E2E5F
:101AE000F2D70AC00AF00BC00BF01200046E000E11
:101AF000F2BE010E056E04C079FF7A6A310E7B6E6C
:101B000003C07CFF7F8EF29E550E816EAA0E816E01
:101B1000808880B8FED705B002D0F29E01D0F28E48
:101B20007F9E120059505A100DE06851595E69515C
:101B30005A5A59C081F05AC082F08151821104E191
:101B4000828A02D00F01418F010E5B6E829810ECE9
:101B50000DF05CEC08F037EF0FF08EBA10D0030EEA
:101B6000086E080E076E770EE82EFED7072EFCD7FC
:101B7000082EFAD700F0010E00016C6F010C8EAA3E
:101B8000120000016C51D8B412006C6BA8EF0EF07B
:101B90000F013F51F80B020912D8D8B41200756B2F
:101BA000010E736F04D802E2BAEF0EF005D0680E92
:101BB000595C010E5A5812000F01418F12003F6FFD
:101BC0000001755112003E503F10401002E0800E9F
:101BD000401A3BC00EF03CC00FF03DC010F03EC0BC
:101BE00011F03FC012F040C013F0B5EC07F00EC08A
:101BF0003BF00FC03CF010C03DF01200F80EF66E46
:101C00001F0EF76E000EF86E0900F5CF81F0090087
:101C1000F5CF82F000EE60F0160EEE6AE806FDE108
:101C20005B6A5A6A596A5C905C92000104EF0BF09F
:101C3000EEEC0FF0B3EC0FF07AEC0BF0BBEC0FF026
:101C40001BEC0FF0A0EC0FF07EEC0EF045EC0FF06B
:101C500094EC0EF069EC0FF032EC0EF0EEEC0EF0BE
:101C600074EF0FF0E00ECF6E100ED06ED16E7F0EBF
:101C7000CD6ECC68CC50CDCF03F0046A03C004F025
:101C8000036A031000017A6F04507B6F0E01C99143
:101C9000CA91C281CE6A12008DB810D0030E086EB0
:101CA000080E076E770EE82EFED7072EFCD7082EFB
:101CB000FAD700F0010E00016D6F010C8DA8120023
:101CC0006D51D8B412006D6BC8EF0DF0F60E036EB7
:101CD000046862C005F063C006F003500526045096
:101CE0000622D8900630086E0530076E000E0724D5
:101CF0000001666F800E0820676F1200656A666AD1
:101D0000676A686A636A646A616A0F015A6B586B32
:101D1000546B556B566B606A536B516B070E526F69
:101D2000840E5B6F576B1200050EB86E040EB76E13
:101D3000100EB96E030EB56EB46AC997C187FA0E5C
:101D4000036E1F0E046EDCEC0FF0700EB66E700C9E
:101D50000F013F51F80B0309DFEC0DF0D8B412006E
:101D6000756B010E726F59505A1002E0BAEF0EF007
:101D7000DCEF0DF0828E66C003F067C004F0AAECC1
:101D80000FF0D0EC0FF0030EEAEC0FF0F0EC0FF0D8
:101D90000F01419FB68E12000BC003F00CC004F07F
:101DA000056A8E0E066E000E076E44EC0AF003C044
:101DB0000BF004C00CF005C00DF01200CE82CCCFA9
:101DC0000AF0CDCF09F00950056E0A50076E05C024
:101DD00008F007C003F008C004F012000F01406BC8
:101DE0003D6B3E6B140E416F426B436B010E3B6FBC
:101DF000020E3C6F820E3F6F820CC9970001785132
:101E00007911D8B412000500FA6E7851FD6E79513F
:101E1000FE6EFF6AFA501200CB91000176517711E5
:101E2000D8B412000500FA6E7651FD6E7751FE6E41
:101E3000FF6AFA5012000E0E286F296B2A6B2B6B6B
:101E40002C6B020E2D6F2E6B2F6B306B820E276F5B
:101E5000820C829C5B5003E037EC0DF002D0B4ECB6
:101E60000BF066EC0EF0010E756FA8EF0EF059C086
:101E700006F05AC007F006C003F0F00E76EC0DF045
:101E800007C003F0F20E76EF0DF0820EAB6EAA6A79
:101E9000A96AAD50FC0B0109AD6E0E01CB91C38157
:101EA00012000001735103E0736BF4EF0CF07251F8
:101EB000D8B41200726B92EF0DF0CEA405D0CE9084
:101EC00003D8CE80120000D004C0CDFF03C0CCFFE9
:101ED0001200010EBE6EBD6ABF6ABB68BA6A0E010F
:101EE000C993800EBC6E800C080E9E6E800E9C6E98
:101EF000240E9D6EA00E9A6E010E9B6E010C036E59
:101F000003C079FF7A6A310E7B6E808000F000F0AA
:101F10007C501200828CD6EC0FF0F6EC0FF0FAEC4D
:101F20000FF0010E0001706F010CD6EC0FF0829ED5
:101F3000F6EC0FF0FAEC0FF0010E0001746F010CDB
:101F40008C0EA76E030EA66EA568AD50F30B0409A8
:101F5000AD6E120003C005F004C006F005C0A9FF75
:101F600006C0AAFF12000E01DC6BDD6BDE6BDF6BBF
:101F7000E06BE16B1200600ED36FD56BD76B050E73
:101F8000D96FD86B1200036E0E01C8A9FDD703C02C
:101F900099FF1200140E036E1F0E046EDCEF0FF09B
:101FA0007AC003F07BC004F05DEF0FF0F80E0F0174
:101FB0003F17A00E436FA00C03C078F004C079F067
:101FC000120003C076F004C077F01200046E0450D3
:101FD000C3EF0FF0036E03C0B5FF1200F29A1200B8
:101FE000CE801200418F1200CA911200F8EF0FF05C
:0C1FF000B69E1200CE9012006801120094
:020000040020DA
:10000000FFFFFFFFFFFFFFFFFFFFFFFFFFFFFFFF00
:10001000FFFFFFFFFFFFFFFFFFFFFFFFFFFFFFFFF0
:10002000FFFFFFFFFFFFFFFFFFFFFFFFFFFFFFFFE0
:10003000FFFFFFFFFFFFFFFFFFFFFFFFFFFFFFFFD0
:10004000FFFFFFFFFFFFFFFFFFFFFFFFFFFFFFFFC0
:10005000FFFFFFFFFFFFFFFFFFFFFFFFFFFFFFFFB0
:10006000FFFFFFFFFFFFFFFFFFFFFFFFFFFFFFFFA0
:10007000FFFFFFFFFFFFFFFFFFFFFFFFFFFFFFFF90
:10008000FFFFFFFFFFFFFFFFFFFFFFFFFFFFFFFF80
:10009000FFFFFFFFFFFFFFFFFFFFFFFFFFFFFFFF70
:1000A000FFFFFFFFFFFFFFFFFFFFFFFFFFFFFFFF60
:1000B000FFFFFFFFFFFFFFFFFFFFFFFFFFFFFFFF50
:1000C000FFFFFFFFFFFFFFFFFFFFFFFFFFFFFFFF40
:1000D000FFFFFFFFFFFFFFFFFFFFFFFFFFFFFFFF30
:1000E000FFFFFFFFFFFFFFFFFFFFFFFFFFFFFFFF20
:1000F000FFFFFFFFFFFFFFFFFFFFFFFFFFFFFFFF10
:020000040030CA
:0C000000ECFFFFFE9FFFFFFFFFFFFFFF74
:00000001FF
