:0400000023EF00F0FA
:100008005C82FACF01F0FBCF02F0F2AC12D00E0105
:10001800C2B1CAA103D089EC10F00BD0C3B1CBA1F7
:1000280003D0A1EC0FF005D0C1B7C9A702D092EC5C
:100038000FF002C0FBFF01C0FAFF5C92110057EFFE
:020048000EF0B8
:100F00000001000A006400E8031027616374756142
:100F10006C526970706C65436F756E74203D20254E
:100F200064200A0D2000746F74616C616E676C65DB
:100F30005475726E6564203D2564200A0D0061635E
:100F40007475616C506F736974696F6E203D2025F4
:100F500064200A0D00616E676C6544657369726593
:100F600064203D20256420090D0A00416E676C65F0
:100F70005475726E6564203D202564200A0D0000C2
:100F800010C014F0156A166A0F34143601E3158088
:100F90001450196E13C014F0156A166A1234143600
:100FA00001E315801450186E195009E01850195CAF
:100FB0000DE21950185C146E180E146407D011C09D
:100FC0000EF012C00FF013C010F01200185009E01C
:100FD0001950185C0DE21850195C146E180E146448
:100FE00007D00EC00EF00FC00FF010C010F01200AE
:100FF000060E176E10BE178E13BE178C0F8E106A5A
:10100000128E136A1850195C14E2D89011361236F9
:10101000133618061950181808E053D806E0F5D70B
:10102000D89010320F320E32192A1850191817E0C2
:10103000F7D71950185C13E2D8900E360F361036D9
:1010400019061950181808E03CD806E0F5D7D890D2
:10105000133212321132182A18501918F8E117AE4B
:1010600007D00E1E0F1E101E0E2A000E0F22102279
:1010700017BC1FD8176A0E5011260F50122210509D
:10108000132213AE03D015D8010E176E11C003F052
:1010900012C004F013C005F019C006F017C007F025
:1010A000B7EC0AF003C00EF004C00FF005C010F05A
:1010B0001200111E121E131E112A000E12221322DC
:1010C000000C170617C014F0070E1416070C100EAC
:1010D000136E5FD0250E181804E018507BEC10F04A
:1010E00058D0146A0F2A0F045AD864D8D8B4120002
:1010F000640A02E00D0A4DE11350D96EDA6ADECFC0
:1011000016F0DDCF17F0020E132617AE06D0030E31
:101110001412166C171ED8B0172A010E186E18502C
:1011200045D83DD80900F550165C0900F550175810
:1011300004E3182A050E1818F2E114C012F0030E89
:10114000121603E02D0E7BEC10F018C015F01ED027
:1011500015502CD824D80900F5CF05F00A00F5CF9A
:1011600006F016C003F017C004F0BFEC0CF003C08B
:101170000AF004C00BF00D6A0A0E0C6E91EC0DF033
:101180000A50300F186E18507BEC10F01506152819
:10119000DFE10F2A0F0403D80DD89CE11200126E74
:1011A00012C0F6FF0F0EF76EF86A1200020DF35030
:1011B000010F12000800F5CF18F01850120049C0B6
:1011C0004DF04E6A4F6A48344D3601E34E804D5023
:1011D000506E505001E153D04CC04DF04E6A4F6AF2
:1011E0004B344D3601E34E804D50556E555001E164
:1011F00046D055507B0F502649C055F04C50551ADB
:10120000800E5516488E4B8E000E4C16516A526A4F
:10121000536A070E546E47B02BD8D89049324832E3
:101220004732D8904A364B364C36542EF4D7090EF6
:10123000546E47B01DD8D890493248324732D890C2
:10124000533252325132542EF4D751C003F052C0AF
:1012500004F053C005F050C006F055C007F0B7ECDD
:101260000AF003C047F004C048F005C049F012007E
:101270004A5051264B5052224C5053221200476A7A
:10128000486A496A1200000E3CEC0FF003C008F0F7
:1012900004C009F00B6A2D0E0A6E29EC0FF0082A23
:1012A000000E092209500001686F696B68C00AF0DE
:1012B00069C00BF00D6A050E0C6E91EC0DF00A5032
:1012C0000B1005E06A0E0F6E67EC08F008D0550EA3
:1012D0000F6E68C010F069C011F067EC08F00001F3
:1012E0002CD803E2815182111FE1F9EC09F03AECAC
:1012F0000BF052EC0CF035EC0BF061EC0FF04BEC1A
:101300000CF0DFEC08F047C074F048C075F049C03D
:1013100076F074C01AF075C01BF076C01CF000ECBB
:101320000AF059EC0CF004D008D802E271EC0DF090
:10133000BFEC0EF0010E736F010C6851815D6951B5
:10134000825912006E510BE06E6B73EC0FF0D89067
:1013500003360436FA0E0324776FFF0E09D073ECC0
:101360000FF0D89003360436080E0324776F000E72
:101370000420786F3ED83AEC0BF041C04AF042C0EE
:101380004BF043C04CF077C003F078C004F001ECA0
:101390000FF003C00BF004C00CF006EC0EF00BC015
:1013A00047F00CC048F00DC049F05CEC0AF047C0B3
:1013B00074F048C075F049C076F074C01AF075C07A
:1013C0001BF076C01CF000EC0AF01AC066F01BC0DF
:1013D00067F00B0E0F6E77C010F078C011F067EC5D
:1013E00008F06B0E0F6E66C010F067C011F067EF6B
:1013F00008F0550E416E850E426E400E436E400C55
:101400001CC01EF01F6A206A1B341E3601E31F80B9
:101410001E50286E285005E11A6A1B6A1C6A1D6A54
:101420001200170E1E6E1AC01FF01BC020F01CC049
:1014300021F01E28226E04D0D890213220321F3293
:10144000222EFAD71F50236E1B8E1C6A1A50246E50
:101450001B50256E1C50266E276A8E0E285E28AE05
:101460000CD02850800A8F0FD7E3D890273226322D
:1014700025322432283EF9D70CD0170E286407D025
:10148000CBD7D8902436253626362736280628503E
:10149000F8E1235008E0271E261E251E246C000EAE
:1014A00025222622272224C01AF025C01BF026C0A0
:1014B0001CF027C01DF0120049C04DF04E6A4F6A63
:1014C00048344D3601E34E804D50546E545001E186
:1014D0004AD04CC04DF04E6A4F6A4B344D3601E352
:1014E0004E804D50556E555001E13DD0516A526AC3
:1014F000536A5550890F545E49C055F04C50551AE7
:10150000800E5516488E496A4B8E4C6A180E506EE6
:10151000D8905136523653364A50475C4B50485853
:101520004C50495807E34A50475E4B50485A4C507C
:10153000495A5180D890473648364936502EE8D718
:1015400051C003F052C004F053C005F054C006F07F
:1015500055C007F0B7EC0AF003C047F004C048F0EC
:1015600005C049F01200476A486A496A12000650ED
:1015700004E003500410051006E1036A046A056ADA
:101580001200062A2DD8086A096AFE0E05142DD805
:1015900007E0F7D7062A032A000E0422052220D8E6
:1015A000086A096A055021D806E0F4D70606D890E3
:1015B00003360436053604BE03D0020E0660F6D7A5
:1015C00006A0049ED890063206500512075001E08E
:1015D000058E03C003F004C004F005C005F012003E
:1015E000D89005320432033212000A6E08500910F6
:1015F0000A10120081516808686F8251D8A0E82A49
:101600000108696FF9EC09F03AEC0BF052EC0CF0C0
:101610002CD861EC0FF04BEC0CF0DFEC08F047C07D
:1016200056F048C057F049C058F015D856C00EF0D3
:1016300057C00FF058C010F0C0EC07F005D800EC10
:101640000AF059EC0CF00DD00EC01AF00FC01BF0D0
:1016500010C01CF01200116A600E126E410E136E63
:10166000410C010E00016E6F010C68C00BF069C0E7
:101670000CF0120041C03BF042C03CF043C03DF0D2
:101680002ED8B1EC0BF033C03EF034C03FF035C083
:1016900040F03CEC0EF03BC044F03CC045F03DC097
:1016A00046F041C00EF042C00FF043C010F044C0FD
:1016B00011F045C012F046C013F0C0EC07F00EC0A8
:1016C00041F00FC042F010C043F009D8B1EC0BF06C
:1016D00033C041F034C042F035C043F0120041C085
:1016E00033F042C034F043C035F0120071EC0EF01C
:1016F000109187EC10F0829EF28EF28C540E036EE5
:10170000200E046E76EC10F05FEC10F051EC0DF052
:1017100043EC09F0A5EC0EF021EC0EF0E4EC0CF03B
:1017200009EC0DF00001725105E0726BA2EC09F0BA
:10173000E6EC0FF000016F51E9E06F6BA2EC09F0ED
:10174000E6EC0FF0660E00017A6F760E796FC10E2F
:10175000E82EFED7792FFCD77A2FFAD7BEEC0FF000
:10176000D5D733C003F034C004F035C005F0390ECE
:10177000066E91EC0CF03AAE04D0336A346A356AE6
:1017800012003A5003E1150E395C07E333C033F021
:1017900034C034F035C035F0120033C01AF034C014
:1017A0001BF035C01CF000EC0AF01AC029F01BC079
:1017B0002AF01CC02BF01DC02CF05EEC0CF029C0F0
:1017C00036F02AC037F02BC038F036C033F037C0BF
:1017D00034F038C035F01200866A856A826A836AFE
:1017E000846A070E8B6E0F0E876EFE0E886EBF0E1C
:1017F000896EF10E8A6E710E0F01216F9F0E1C6FA4
:10180000E80E146F070E296F0B0E0C6F206B286B00
:10181000136B0B6B1B6B276B0A6B126B1A6B1F6BBB
:101820000969116919691E69070E266F030E0E01F9
:10183000FC6F020E1F6F1F0EAC6F010EEA6F040EDD
:10184000FD6F020EFB6F090EF86F090CF9EC09F041
:101850003AEC0BF027D859C00BF05AC00CF061ECF1
:101860000FF019D8DFEC08F047C056F048C057F029
:1018700049C058F02BEC0BF056C00EF057C00FF0DB
:1018800058C010F0C0EC07F024EC0BF000EC0AF0AC
:1018900010D831EF0BF00BC047F00CC048F00DC072
:1018A00049F0120041C04AF042C04BF043C04CF036
:1018B00012001AC062F01BC063F01200326A8E0E72
:1018C000316E2CAE11D02C1E2B1E2A1E296C000E40
:1018D0002A222B222C22010E326E06D0D8902C32D6
:1018E0002B322A322932312A2D6A2E6A2F6A2C5045
:1018F000306E2D502E102F103010F0E129C003F063
:101900002AC004F02BC005F031C006F032C007F049
:10191000B7EC0AF003C029F004C02AF005C02BF090
:10192000120003500410051006E10650D96EDA6A61
:10193000DE6ADD6A000C05507F0B076E086AD890DE
:10194000073608360650D96EDA6A07C0DEFF08C0CF
:10195000DDFF0650D96EDA6A010E04AE000EDE120B
:10196000000EDD120650D96EDA6A820EDE26FF0EF8
:10197000DD220550800B3F09056E049E1200086AA7
:10198000096A055006101BE0010E076E04D0D890BE
:1019900005360636072A06AEFAD7D8900836093635
:1019A0000550035C0650045805E30550035E0650DD
:1019B000045A0880D89006320532072EEED708C0A8
:1019C00003F009C004F012008DB210D0030E000124
:1019D000756F080E746F770EE82EFED7742FFCD744
:1019E000752FFAD7010E00016D6F010C8DA2120048
:1019F00000016D51D8B412006D6B5B5004E05B6A5E
:101A000071EC0DF002D026EC0CF0BFEC0EF015EFEF
:101A10000FF08DB410D0030E0001756F080E746FB7
:101A2000770EE82EFED7742FFCD7752FFAD7010E4C
:101A300000016C6F010C8DA4120000016C51D8B430
:101A400012006C6B5B5004E05B6AFAEC0AF002D0A7
:101A500071EC0DF0BFEC0EF0B0EF0DF0C6EC0DF038
:101A600010E26651592667515A2259506808816F11
:101A70005A50D8A0E82A0108826F811104E18288B7
:101A800002D00F01418F5B6A829A04D867EC08F09C
:101A9000CCEF0FF0260E0F6E59C010F05AC011F0A7
:101AA0001200F20E14EC10F01B6E1C6AF00E14EC17
:101AB00010F01D6E1B50196E1D501E6E19C01FF0C8
:101AC0001E2803E11F28D8B412001EC059F01FC001
:101AD0005AF03E0E0F6E1EC010F01FC011F067EFDF
:101AE00008F0F9EC09F03AEC0BF052EC0CF081C084
:101AF0000BF082C00CF061EC0FF04BEC0CF0DFEC63
:101B000008F047C056F048C057F049C058F056C0DA
:101B10001AF057C01BF058C01CF000EC0AF059EF47
:101B20000CF00C500D1017E0010E0E6E04D0D89082
:101B30000C360D360E2A0DAEFAD70C500A5C0D503D
:101B40000B5804E30C500A5E0D500B5AD8900D321E
:101B50000C320E2EF2D70AC00AF00BC00BF01200A6
:101B60000F013F51F80B020916D8D8B41200736B5D
:101B7000010E716F0BD802E24FEF0FF00F01418F92
:101B8000010E5A6E680E596ECCEF0FF0680E595C5C
:101B9000010E5A5812003F6F000173511200046E7B
:101BA000000EF2BE010E056E04C079FF7A6A310E96
:101BB0007B6E03C07CFF7F8EF29E550E816EAA0E57
:101BC000816E808880B8FED705B002D0F29E01D029
:101BD000F28E7F9E120059505A100DE06651595EE8
:101BE00067515A5A59C081F05AC082F0815182110E
:101BF00004E1828A02D00F01418F010E5B6E829850
:101C00004AEC0DF067EC08F0CCEF0FF00E6A0CAE6A
:101C100006D00B6C0C1ED8B00C2A010E0E6E0BC039
:101C200003F00CC004F0056A8E0E066E0EC007F0BD
:101C3000B7EC0AF003C00BF004C00CF005C00DF0C7
:101C400012008EBA10D0030E086E080E076E770EC3
:101C5000E82EFED7072EFCD7082EFAD700F0010E8B
:101C600000016A6F010C8EAA120000016A51D8B4FB
:101C700012006A6B15EF0FF03E503F10401002E06B
:101C8000800E401A3BC00EF03CC00FF03DC010F07B
:101C90003EC011F03FC012F040C013F0C0EC07F09E
:101CA0000EC03BF00FC03CF010C03DF01200220E01
:101CB000F66E210EF76E000EF86E0900F5CF81F07A
:101CC0000900F5CF82F000EE60F0140EEE6AE8062F
:101CD000FDE15B6A5A6A596A5C905C92000176EF9A
:101CE0000BF083EC10F048EC10F0ECEC0BF050EC47
:101CF00010F035EC10F0B0EC0FF0D7EC0EF0DAECA1
:101D00000FF0EDEC0EF0FEEC0FF08BEC0EF083EC30
:101D10000FF009EF10F0E00ECF6E100ED06ED16E06
:101D20007F0ECD6ECC68CC50CDCF03F0046A03C0DB
:101D300004F0036A031000017F6F0450806F0E01EE
:101D4000C991CA91C281CE6A12008DB810D0030E1B
:101D5000096E080E086E770EE82EFED7082EFCD707
:101D6000092EFAD700F0010E00016B6F010C8DA84F
:101D700012006B51D8B412006B6BB0EF0DF0F80E7F
:101D8000036E046862C005F063C006F003500526C8
:101D900004500622D8900630086E0530076E000EFB
:101DA00007240001646F800E0820656F1200656AC9
:101DB000666A676A686A636A646A616A0F015A6B75
:101DC000586B546B556B566B606A536B516B0F0EAF
:101DD000526F840E5B6F576B1200050EB86E040EC7
:101DE000B76E100EB96EF30EB56EB46AC997C1879F
:101DF000240E036E210E046E71EC10F0700EB66EA0
:101E0000700C04AE0DD003C005F004C006F0051E32
:101E1000061E054A062A05C003F006C004F012009B
:101E200003C003F004C004F012000F013F51F80B8F
:101E30000309CBEC0DF0D8B41200736B010E706F78
:101E40005B6E59505A1002E04FEF0FF00F01418FB7
:101E5000120008500A02F3CF0CF0F4CF0DF0085036
:101E60000B02F3500D2609500A02F3500D260CC048
:101E700008F00DC009F01200076E07C05AFF0F01ED
:101E80005B8F5B9D5B815BB1FED75F51066E056A20
:101E90005E510524036E000E0620046E1200828E31
:101EA00064C003F065C004F03FEC10F065EC10F086
:101EB000220E7FEC10F085EC10F00F01419FB68EE2
:101EC00012000BC003F00CC004F0056A8E0E066E03
:101ED000000E076EB7EC0AF003C00BF004C00CF064
:101EE00005C00DF01200CE82CCCF0AF0CDCF09F0A4
:101EF0000950056E0A50076E05C008F007C003F0D0
:101F000008C004F012000F01406B3D6B3E6B140ED5
:101F1000416F426B436B010E3B6F020E3C6F820EB2
:101F20003F6F820CC99700017D517E11D8B4120019
:101F30000500FA6E7D51FD6E7E51FE6EFF6AFA500D
:101F40001200CB9100017B517C11D8B41200050026
:101F5000FA6E7B51FD6E7C51FE6EFF6AFA501200E4
:101F60000E0E286F296B2A6B2B6B2C6B020E2D6FBC
:101F70002E6B2F6B306B820E276F820C829C5B5016
:101F800003E071EC0DF002D026EC0CF0BFEC0EF08B
:101F9000010E736F15EF0FF059C006F05AC007F02D
:101FA00006C003F0F00ECFEC0DF007C003F0F20E08
:101FB000CFEF0DF0820EAB6EAA6AA96AAD50FC0B92
:101FC0000109AD6E0E01CB91C38112000001715168
:101FD00003E0716B2EEF0DF07051D8B41200706BEE
:101FE000EBEF0DF0CEA405D0CE9003D8CE8012003A
:101FF00000D004C0CDFF03C0CCFF1200010EBE6EA6
:10200000BD6ABF6ABB68BA6A0E01C993800EBC6E16
:10201000800C080E9E6E800E9C6E240E9D6E400EEF
:102020009A6E030E9B6E030C036E03C079FF7A6AEF
:10203000310E7B6E808000F000F07C501200828CAC
:102040006BEC10F08BEC10F08FEC10F0010E000137
:102050006F6F010C6BEC10F0829E8BEC10F08FEC2C
:1020600010F0010E0001726F010C8C0EA76E030EB2
:10207000A66EA568AD50F30B0409AD6E120003C047
:1020800005F004C006F005C0A9FF06C0AAFF1200B3
:102090000E01DC6BDD6BDE6BDF6BE06BE16B120066
:1020A000600ED36FD56BD76B060ED96FD86B12004D
:1020B000036E0E01C8A9FDD703C099FF12003E0EA2
:1020C000036E200E046E71EF10F07FC003F080C02D
:1020D00004F0F2EF0FF0F80E0F013F17A00E436F60
:1020E000A00C03C07DF004C07EF0120003C07BF0A2
:1020F00004C07CF01200046E045058EF10F0036E20
:1021000003C0B5FF1200F29A1200CE801200418F78
:102110001200CA9112008DEF10F0B69E1200CE9000
:062120001200680112002C
:020000040020DA
:10000000FFFFFFFFFFFFFFFFFFFFFFFFFFFFFFFF00
:10001000FFFFFFFFFFFFFFFFFFFFFFFFFFFFFFFFF0
:10002000FFFFFFFFFFFFFFFFFFFFFFFFFFFFFFFFE0
:10003000FFFFFFFFFFFFFFFFFFFFFFFFFFFFFFFFD0
:10004000FFFFFFFFFFFFFFFFFFFFFFFFFFFFFFFFC0
:10005000FFFFFFFFFFFFFFFFFFFFFFFFFFFFFFFFB0
:10006000FFFFFFFFFFFFFFFFFFFFFFFFFFFFFFFFA0
:10007000FFFFFFFFFFFFFFFFFFFFFFFFFFFFFFFF90
:10008000FFFFFFFFFFFFFFFFFFFFFFFFFFFFFFFF80
:10009000FFFFFFFFFFFFFFFFFFFFFFFFFFFFFFFF70
:1000A000FFFFFFFFFFFFFFFFFFFFFFFFFFFFFFFF60
:1000B000FFFFFFFFFFFFFFFFFFFFFFFFFFFFFFFF50
:1000C000FFFFFFFFFFFFFFFFFFFFFFFFFFFFFFFF40
:1000D000FFFFFFFFFFFFFFFFFFFFFFFFFFFFFFFF30
:1000E000FFFFFFFFFFFFFFFFFFFFFFFFFFFFFFFF20
:1000F000FFFFFFFFFFFFFFFFFFFFFFFFFFFFFFFF10
:020000040030CA
:0C000000ECFFFFFE9FFFFFFFFFFFFFFF74
:00000001FF
